:020000040800F2
:10000000000003200D030008150300081903000871
:100010001D0300082103000825030008000000005C
:10002000000000000000000000000000290300089C
:100030002D0300080000000000000000A1060008D9
:1000400039030008390300083903000839030008A0
:100050003903000839030008390300083903000890
:100060003903000839030008390300083903000880
:100070003903000839030008390300083903000870
:100080003903000839030008390300083903000860
:100090003903000839030008390300083903000850
:1000A0003903000839030008390300083903000840
:1000B0003903000839030008390300083903000830
:1000C0003903000839030008390300083903000820
:1000D0003903000839030008390300083903000810
:1000E0003903000839030008390300083903000800
:1000F00039030008390300083903000839030008F0
:1001000039030008390300083903000839030008DF
:1001100039030008390300083903000839030008CF
:1001200039030008390300083903000839030008BF
:1001300039030008390300083903000839030008AF
:10014000390300083903000839030008390300089F
:10015000390300083903000839030008390300088F
:10016000390300083903000839030008390300087F
:1001700039030008390300083903000800000000B3
:10018000390300083903000839030008390300085F
:10019000390300083903000839030008390300084F
:1001A00039030008390300083903000800B583B09B
:1001B00040F21003C2F200034BF6BA22CCF6DE2264
:1001C0001A6040F24C03C2F200031A6040F21003BE
:1001D000C2F2000340F25002C2F20002002101E02C
:1001E000196004339342FBD340F21003C2F20003C0
:1001F0001B682BB940F24C03C2F200031B6803B129
:10020000FEE740F20003C2F200034BF6BA22CCF63E
:10021000DE221A6040F20C03C2F200031A6040F2C0
:100220000003C2F2000340F6C862C0F6000240F2CA
:100230001001C2F2000103E01068186004330432B8
:100240008B42F9D340F20003C2F200031A6845F270
:100250007863C1F234239A4207D140F20C03C2F210
:1002600000031A681B689A4200D0FEE700F070F89D
:1002700001A8694600F064F840F23C32C0F6000282
:1002800040F23C33C0F60003D31A9E10002440F223
:100290003C35C0F6000503E055F82430984701349A
:1002A000A642F9DC40F23C32C0F6000240F23C3398
:1002B000C0F60003D31A9E10002440F23C35C0F66D
:1002C000000503E055F8243098470134A642F9DCD4
:1002D0000198009900F0ACF9064640F23C32C0F6B5
:1002E000000240F23C33C0F60003D31A9C1040F2E7
:1002F0003C35C0F6000503E0013C55F82430984732
:10030000002CF9DC304600F019F800BF08B5FFF703
:100310004DFF00BFFEE700BFFEE700BFFEE700BFE6
:10032000FEE700BFFEE700BFFEE700BFFEE700BF3D
:0C033000FEE700BF704700BFFEE700BF03
:10033C00FEE700BF0123036040F20403C2F2000396
:10034C000B60704708B500F001F808BD4FF460531E
:10035C00C4F202031A6842F001021A6000229A6089
:10036C00196821F0847121F48031196043F2100175
:10037C00C2F200415960196821F480211960DA60D9
:10038C004FF46D43CEF200034FF000629A60704759
:10039C0010B40446D0B1D9B1E2B1016042604FF45F
:1003AC00004282830022C283104603E0111D24F810
:1003BC0011000132072AF9D900202083608323849D
:1003CC0040F21803C2F20003187004E0012002E0AE
:1003DC00012000E001205DF8044B7047F8B507469A
:1003EC0028B340F21806C2F20006084600F0D8FA0C
:1003FC0004460D4600220023C4F2E00300F024FB67
:10040C0000F034FDB88300200021C3F6F0712246C1
:10041C002B4600F065F900220023C4F2E00300F043
:10042C0013FB00F023FDF88300203070F8BD012091
:10043C00F8BD00BF2DE9F001024600283DD040F286
:10044C001803C2F200031B780024254607267BB351
:10045C0035E01368670033F81430138129462B46B6
:10046C0005E0181D32F9100001EB00310133072BA8
:10047C00F7D9C1F3CF311183536809B2B2F91CC05B
:10048C00B2F91A00B2F91E8008FB00F00CFB010156
:10049C00C913D953138B5383334606E0D91C32F856
:1004AC001100191D22F81100013B002BF6D101346B
:1004BC00138CA342CDD8002002E0012000E00320E1
:1004CC00BDE8F001704700BF4EF21003CEF20003FE
:1004DC0000221A6058601A6842F007021A607047CE
:1004EC004FF46053C4F202031A6B42F001021A6318
:1004FC000022C4F20202116841F0030111605A6C2F
:10050C0042F480725A644FF40053C4F201039A68A7
:10051C0022F001029A6000225A60996841F00201AF
:10052C009960196921F007011961DA624FF40C52D4
:10053C00C4F20102516841F4803151605A6B22F0CF
:10054C001F025A639A6842F001029A609A6842F05C
:10055C0080429A60704700BF4FF46053C4F20203AC
:10056C001A6B42F001021A630022C4F202021168F3
:10057C0041F4706111601A6C42F000521A644FF42D
:10058C00E843C4F200031A6800221A601A6842F0A9
:10059C0001121A60704700BF4FF40052C4F20102FE
:1005AC00136813F0020FFBD04FF40053C4F2010395
:1005BC00D86C9A6842F080429A6080B2704700BF53
:1005CC0040F24403C2F200031B88B3F5805F21BFE5
:1005DC0040F24403C2F2000340F6FF721A8040F26C
:1005EC004403C2F200035B88B3F5805F21BF40F285
:1005FC004403C2F2000340F6FF725A800379012BC8
:10060C0002D0022B07D0704702884FF4E843C4F2A3
:10061C0000039A60704742884FF4E843C4F2000329
:10062C005A61704708B54FF40053CEF204035A6870
:10063C0042F003025A6040F22000C2F2000040F285
:10064C001A01C2F2000140F21C02C2F200020123A4
:10065C00FFF79EFE40F24A03C2F20003187000B18D
:10066C00FEE740F22000C2F200004BF67761C3F6C1
:10067C001F61FFF7B3FE40F24A03C2F20003187089
:10068C00FFF72EFFFFF768FF4FF4D260FFF71CFF58
:10069C00FEE700BF08B5FFF77FFF000140F21A0329
:1006AC00C2F20003188040F22000C2F20000FFF7F3
:1006BC00C1FE40F24A03C2F20003187040F244003B
:1006CC00C2F2000040F21C03C2F200031B8803803C
:1006DC00FFF776FF08BD00BF81F0004102E000BFCC
:1006EC0083F0004330B54FEA41044FEA430594EAE6
:1006FC00050F08BF90EA020F1FBF54EA000C55EA21
:10070C00020C7FEA645C7FEA655C00F0E2804FEAF1
:10071C005454D4EB5555B8BF6D420CDD2C4480EAD3
:10072C00020281EA030382EA000083EA010180EA03
:10073C00020281EA0303362D88BF30BD11F0004F51
:10074C004FEA01314FF4801C4CEA113102D0404287
:10075C0061EB410113F0004F4FEA03334CEA1333C2
:10076C0002D0524263EB430394EA050F00F0A780DA
:10077C00A4F10104D5F1200E0DDB02FA0EFC22FAD5
:10078C0005F2801841F1000103FA0EF2801843FAC9
:10079C0005F359410EE0A5F120050EF1200E012ABA
:1007AC0003FA0EFC28BF4CF0020C43FA05F3C018F8
:1007BC0051EBE37101F0004507D54FF0000EDCF171
:1007CC00000C7EEB00006EEB0101B1F5801F1BD31A
:1007DC00B1F5001F0CD349085FEA30004FEA3C0C1E
:1007EC0004F101044FEA445212F5800F80F09A8014
:1007FC00BCF1004F08BF5FEA500C50F1000041EB18
:10080C00045141EA050130BD5FEA4C0C404141EB1B
:10081C00010111F4801FA4F10104E9D191F0000F42
:10082C0004BF01460020B1FA81F308BF2033A3F1C5
:10083C000B03B3F120020CDA0C3208DD02F1140CBC
:10084C00C2F10C0201FA0CF021FA02F10CE002F1F7
:10085C001402D8BFC2F1200C01FA02F120FA0CFCF0
:10086C00DCBF41EA0C019040E41AA2BF01EB045139
:10087C00294330BD6FEA04041F3C1CDA0C340EDC37
:10088C0004F11404C4F1200220FA04F001FA02F37A
:10089C0040EA030021FA04F345EA030130BDC4F138
:1008AC000C04C4F1200220FA02F001FA04F340EA2D
:1008BC000300294630BD21FA04F0294630BD94F0DE
:1008CC00000F83F4801306BF81F480110134013DC5
:1008DC004EE77FEA645C18BF7FEA655C29D094EA36
:1008EC00050F08BF90EA020F05D054EA000C04BFB4
:1008FC001946104630BD91EA030F1EBF002100209F
:10090C0030BD5FEA545C05D14000494128BF41F03D
:10091C00004130BD14F580043CBF01F5801130BDA1
:10092C0001F0004545F0FE4141F470014FF000002C
:10093C0030BD7FEA645C1ABF194610467FEA655CDD
:10094C001CBF0B46024650EA013406BF52EA03357F
:10095C0091EA030F41F4002130BD00BF90F0000F6D
:10096C0004BF0021704730B54FF4806404F13204A9
:10097C004FF000054FF0000150E700BF90F0000F62
:10098C0004BF0021704730B54FF4806404F1320489
:10099C0010F0004548BF40424FF000013EE700BF59
:1009AC0042004FEAE2014FEA31014FEA02701FBFE9
:1009BC0012F07F4393F07F4F81F06051704792F0BB
:1009CC00000F14BF93F07F4F704730B54FF4607435
:1009DC0001F0004521F0004120E700BF50EA010280
:1009EC0008BF704730B54FF000050AE050EA01022D
:1009FC0008BF704730B511F0004502D5404261EB9D
:100A0C0041014FF4806404F132045FEA915C3FF4DD
:100A1C00DCAE4FF003025FEADC0C18BF03325FEA76
:100A2C00DC0C18BF033202EBDC02C2F1200300FA2B
:100A3C0003FC20FA02F001FA03FE40EA0E0021FA50
:100A4C0002F11444C1E600BF70B54FF0FF0C4CF43A
:100A5C00E06C1CEA11541DBF1CEA135594EA0C0FF0
:100A6C0095EA0C0F00F0DEF82C4481EA030621EA2B
:100A7C004C5123EA4C5350EA013518BF52EA033566
:100A8C0041F4801143F4801338D0A0FB02CE4FF018
:100A9C000005E1FB02E506F00042E0FB03E54FF048
:100AAC000006E1FB03569CF0000F18BF4EF0010E40
:100ABC00A4F1FF04B6F5007F64F5407404D25FEA3C
:100ACC004E0E6D4146EB060642EAC62141EA5551EF
:100ADC004FEAC52040EA5E504FEACE2EB4F1FD0C31
:100AEC0088BFBCF5E06F1ED8BEF1004F08BF5FEAAF
:100AFC00500E50F1000041EB045170BD06F0004661
:100B0C0046EA010140EA020081EA0301B4EB5C040D
:100B1C00C2BFD4EB0C0541EA045170BD41F4801105
:100B2C004FF0000E013C00F3AB8014F1360FDEBF2A
:100B3C00002001F0004170BDC4F10004203C35DA06
:100B4C000C341BDC04F11404C4F1200500FA05F389
:100B5C0020FA04F001FA05F240EA020001F000422A
:100B6C0021F0004110EBD37021FA04F642EB0601A0
:100B7C005EEA430E08BF20EAD37070BDC4F10C04CA
:100B8C00C4F1200500FA04F320FA05F001FA04F28E
:100B9C0040EA020001F0004110EBD37041F100017A
:100BAC005EEA430E08BF20EAD37070BDC4F1200585
:100BBC0000FA05F24EEA020E20FA04F301FA05F2ED
:100BCC0043EA020321FA04F001F0004121FA04F295
:100BDC0020EA020000EBD3705EEA430E08BF20EA65
:100BEC00D37070BD94F0000F0FD101F0004640009F
:100BFC0041EB010111F4801F08BF013CF7D041EA21
:100C0C00060195F0000F18BF704703F00046520024
:100C1C0043EB030313F4801F08BF013DF7D043EAF5
:100C2C000603704794EA0C0F0CEA135518BF95EAAB
:100C3C000C0F0CD050EA410618BF52EA4306D1D132
:100C4C0081EA030101F000414FF0000070BD50EA51
:100C5C00410606BF1046194652EA430619D094EADB
:100C6C000C0F02D150EA013613D195EA0C0F05D1C5
:100C7C0052EA03361CBF104619460AD181EA030119
:100C8C0001F0004141F0FE4141F470014FF00000D1
:100C9C0070BD41F0FE4141F4780170BD70B54FF06C
:100CAC00FF0C4CF4E06C1CEA11541DBF1CEA1355EC
:100CBC0094EA0C0F95EA0C0F00F0A7F8A4EB0504CE
:100CCC0081EA030E52EA03354FEA013100F08880C5
:100CDC004FEA03334FF0805545EA131343EA12638E
:100CEC004FEA022245EA111545EA10654FEA002643
:100CFC000EF000419D4208BF964244F1FD0404F5FC
:100D0C00407402D25B084FEA3202B61A65EB030557
:100D1C005B084FEA32024FF480104FF4002CB6EB14
:100D2C00020E75EB030E22BFB61A754640EA0C0094
:100D3C005B084FEA3202B6EB020E75EB030E22BFD4
:100D4C00B61A754640EA5C005B084FEA3202B6EB15
:100D5C00020E75EB030E22BFB61A754640EA9C00D4
:100D6C005B084FEA3202B6EB020E75EB030E22BFA4
:100D7C00B61A754640EADC0055EA060E18D04FEA62
:100D8C00051545EA16754FEA06164FEAC30343EA02
:100D9C0052734FEAC2025FEA1C1CC0D111F4801FCF
:100DAC000BD141EA00014FF000004FF0004CB6E7C8
:100DBC0011F4801F04BF01430020B4F1FD0C88BF67
:100DCC00BCF5E06F3FF6AFAEB5EB030C04BFB6EB72
:100DDC00020C5FEA500C50F1000041EB045170BD65
:100DEC000EF0004E4EEA113114EB5C04C2BFD4EB92
:100DFC000C0541EA045170BD41F480114FF0000E16
:100E0C00013C90E645EA060E8DE60CEA135594EA91
:100E1C000C0F08BF95EA0C0F3FF43BAF94EA0C0F94
:100E2C000AD150EA01347FF434AF95EA0C0F7FF409
:100E3C0025AF104619462CE795EA0C0F06D152EA5D
:100E4C0003353FF4FDAE1046194622E750EA410641
:100E5C0018BF52EA43067FF4C5AE50EA41047FF452
:100E6C000DAF52EA43057FF4EBAE12E74FEA4102B5
:100E7C0012F5001215D211D56FF47873B3EB6252E0
:100E8C0012D94FEAC12343F0004343EA505311F007
:100E9C00004F23FA02F018BF404270474FF0000099
:100EAC00704750EA013005D111F0004008BF6FF0D7
:0C0EBC00004070474FF00000704700BF7E
:100EC800785634121400002000000000325476983E
:04000005080001AD41
:00000001FF
